:1000000081C0E6C09AC099C098C097C096C095C0FC
:1000100094C093C092C091C090C08FC08EC08DC05C
:100020008CC08BC08AC071C174C173C170C16FC1F3
:100030006CC16CC16BC169C16AC169C16AC169C166
:1000400064C173C177C176C173C172C16EC16FC122
:100050006EC16BC16DC16CC16DC16CC166C174C133
:1000600077C176C173C172C16FC16FC16EC16CC1FE
:100070006DC16CC16DC16CC167C186C18BC191C1BD
:1000800096C19CC1A0C17FC17EC1A4C1A9C1B0C19C
:10009000B5C1BDC170C1D9C1D6C1D2C1D6C1D3C14C
:1000A000CFC1D0C1CFC1CCC1CEC1CFC1C9C1CBC1DD
:1000B000CCC10AC612C512C531C5B4C510C654C5D7
:1000C00054C504C600020406080A0C0E10121416C9
:1000D000181A1C1E20222426282A2C2E30323436B0
:1000E000383A3C3E00020406080A0C0E10120116B3
:1000F000011A1C1E20222426012A2C2E0101013661
:10010000383A3C3E11241FBECFE5D4E0DEBFCDBF60
:1001100010E0A0E6B0E0E6EFF1E102C005900D923C
:10012000AA36B107D9F710E0AAE6B0E001C01D92E7
:10013000AB3CB107E1F792D75CC862CFFC01808588
:1001400091859B01281B390BC9017187608720812C
:10015000318142815381A0E0B0E082179307A40768
:10016000B50750F4281B390B4A0B5B0B20833183F6
:100170004283538380E0089584819581A681B7816D
:1001800080839183A283B38381E00895AC01440FFF
:10019000551F445050408FB7F8946CB57DB58FBF54
:1001A0002FB7F8948CB59DB52FBF861B970B84177E
:1001B0009507B0F30895CF93DF93EC01009729F0F2
:1001C00088EE93E0E3DF2197D9F7DF91CF9108958F
:1001D0001F920F920FB60F9211242F933F938F937C
:1001E0009F932CB53DB5829916C080919200909155
:1001F0009300281B390B30939100209390008CE4DE
:1002000080937B009F918F913F912F910F900FBE14
:100210000F901F9018953093930020939200F2CF87
:1002200080917B00882309F444C0809190009091D4
:10023000910020919000309191002817390759F0D2
:1002400020919000309191008091900090919100C8
:1002500028173907A9F780917C0090917D00281715
:10026000390740F58091BE009091BF00880F991F1B
:100270009093C6008093C5004091BC005091BD0092
:10028000440F551F5093C8004093C70028173907E3
:1002900080F04217530768F0220F331F220F331FDD
:1002A000220F331F30937A002093790081E08093EE
:1002B000BB00089580917E0090917F008217930784
:1002C00088F230937A00209379001092BB00089551
:1002D00010927B0010927A0010927900A1DF809139
:1002E000790090917A000097C9F308959598AC9899
:1002F000C098949AAD9AAB9A0895E82FF0E0EE304A
:10030000F10520F4ED5EFF4F0994C09A0895959A87
:100310000895AC9A089503FD8860E82FF0E0EE3070
:10032000F10528F4EF5DFF4F0994AB9AE6CF0895ED
:10033000949AE3CFAD9AE1CFE82FF0E0EE30F105EB
:1003400020F4E15DFF4F0994AB98089594980895C7
:10035000AD9808959598AC98C09803FD8860ECCF4F
:10036000902F03FD8860E82FF0E0EE30F10558F49F
:10037000E35CFF4F0994AD9AAC98959894FD54C0F6
:10038000AB9887E087B90895AD9AAB9A949887E0C7
:1003900087B90895AB9AC098959894FF43C0AC9ADA
:1003A00025C0AD9A949AAB9886E087B90895AD9A26
:1003B000AC98959894FF34C0959A1DC0AB9A949AC6
:1003C000AD9817B80895949A9598AC9894FF26C064
:1003D000C09A1AC0949AAB9AAD9886E087B90895EE
:1003E000AB9AC098AC9894FD17C0949817B808952C
:1003F000949AAD9AAB9887E087B90895949A9598A6
:10040000AC9894FD07C0AD9886E087B90895AB9A83
:10041000AD9AEBCFAC9AF8CF959AE8CFAB98F4CFE2
:100420009498E9CFAD98E2CFC09AABCF03FD886036
:10043000E82FF0E0EE30F10528F4E55BFF4F09947A
:1004400086E087B9089517B8089587E087B90895B9
:10045000802F8770815084DF802F877081CF90E05C
:10046000A0E0B0E02091880030918900442737FD5A
:100470004095542FBC01CD01F8D524E630E040E092
:1004800050E039D6DA01C90108959201402F407138
:1004900004FF06C08091880090918900281B390BC9
:1004A0008091840090918500821B930B909385002E
:1004B0008093840097FD08C0442309F40895802F99
:1004C0008F7E082F877046CF4423C1F7802F80612D
:1004D000082F877020CF802F877080FF0DC005FD0B
:1004E0000DC0239482E1821510F4A2E12A2E80E04F
:1004F000222009F481E0089505FDF3CF2A94F2CF7C
:10050000E22D05FFE160F0E0EC53FF4FE4912E2E69
:100510008E2F81700895E22D05FDE160F0E0EC532F
:10052000FF4FE4912E2E8E2F8170089579DE409139
:10053000790050917A008091860090918700481B45
:10054000590B80918A0090918B004817590714F439
:1005500040E050E020918800309189008091C100F6
:100560009091C200821793072CF405969093C200D5
:100570008093C100281739070CF4C901481759079F
:100580000CF4CA012C0108959093BA008093B9002D
:100590009093B2008093B1008091A4009091A50047
:1005A0009093AE008093AD009C01369527953695CB
:1005B0002795369527953093B6002093B500C9014D
:1005C000969587959093A8008093A700AC015695C7
:1005D0004795569547958091C000823059F08330F9
:1005E00019F0813089F00895241B350B3093B60043
:1005F0002093B5008091B5009091B600841B950BB7
:100600009093B6008093B5008091B5009091B600AC
:10061000841B950B9093B6008093B50008958FEFDF
:100620008093A6000F7B5092C2004092C10080913F
:10063000B3009091B400A8CF902F9F77092F80919D
:10064000750081110068809176008093C0008091D0
:100650006A0090916B00880F991F90937D008093A2
:100660007C0080916C0090916D00880F991F909391
:100670007F0080937E00E0916E00F0916F00EE0F9E
:10068000FF1FF0938100E0938000809172009091B1
:100690007300880F991F90938300809382002091AC
:1006A000700030917100220F331F2E1B3F0BC901C8
:1006B000880F991F880F991F880F991F64E670E0B3
:1006C000F3D4260F371F3093890020938800E61B50
:1006D000F70BF0938700E093860070938B00609394
:1006E0008A0088E0BCDE90938D0080938C0089E1C5
:1006F000B6DE90938F0080938E00902F977F092F06
:1007000080917800811108600895CF92DF92EF9276
:10071000FF92CF93DF93262FE82FF0E080E197E25E
:10072000BF01D6D46B0130E02E9F70012F9FF00CDB
:100730003E9FF00C1124E114F10489F0C0E0D0E0F8
:10074000802F8770E8DD86E090E020DD802F8770C5
:1007500001DEC6011BDD2196CE15DF0588F3DF9192
:10076000CF91FF90EF90DF90CF9008951F93087F77
:100770006FDE10E0912F9770802F887F082F092B54
:10078000812FEEDD812F8A5F6AE0BFDF85E090E098
:1007900012DD1F5F153071F71F910895CF92DF9220
:1007A000FF921F93CF93DF93EC016B01F42E142F74
:1007B0008FDD212F1F2D8C179D07D0F3C816D9066A
:1007C000B8F3122F1150A1F7DF91CF911F91FF9035
:1007D000DF90CF900895EF92FF921F93CF93DF9316
:1007E00077DD7C01EC0110E003C01F5F1233A9F03C
:1007F0006FDDC817D90708F4EC018E159F0508F4C2
:100800007C01CE018E199F09099778F380E090E072
:10081000CDB7DEB7E5E0BAC409C0CE018E0D9F1D8D
:1008200096958795CDB7DEB7E5E0B0C460918000BE
:100830007091810080917C0090917D0042E3AECF69
:100840008091740090E0880F991F20918000309172
:10085000810060917E0070917F00820F931F4FE0B6
:100860009DCFA0E0B0E0E6E3F4E06CC4DFDFF0DDB4
:100870008CE062E34ADF88E0682E88EF782E81E022
:10088000882E912C10EAC12E16E8D12E11E0E12E0F
:10089000F12CAA24A3942ADD1092850010928400E2
:1008A00044245524802F8F7E082F87FF03C0959AFC
:1008B000AC9AC09AC5DF1ADD40908C0050908D0034
:1008C00060929E0070929F008092A0009092A10082
:1008D000CFEFDFE310E080919E0090919F00A09108
:1008E000A000B091A10080939A0090939B00A093E8
:1008F0009C00B0939D00B2E12B2E16C00F7DC5DD8C
:100900008FB7F8946CB57DB58FBF8AE990E016DC9F
:10091000882309F092C0DFDD882371F4459B08C06D
:100920000F7DD9DD882341F44599E8CF0062E7CFF8
:100930000062D1DD8823C1F38FB7F8942CB53DB5A3
:100940008FBF8091B3009091B400A901481B590B4F
:100950003093B4002093B3008091C3009091C40001
:10096000840F951F9093A5008093A4005093C4001A
:100970004093C3008C1B9D0B959587959595879506
:10098000C80FD91F1F5F183730F02BE1C53ED207C3
:100990000CF470C018E7902F9770892F8F5F863006
:1009A00008F086508770902F987F092F082BD2DC93
:1009B000802F8F7E082F8770D3DC802F877041F1C6
:1009C00080919E0090919F00A091A000B091A10005
:1009D0008897A109B10980939E0090939F00A093EE
:1009E000A000B093A100805A9648A140B04040F4C6
:1009F000C0929E00D0929F00E092A000F092A100D1
:100A00004114510409F447CF8CE291E0BFDB63CF7E
:100A100007DC4091790050917A0080918600909196
:100A20008700481B590B80918A0090918B004817D2
:100A300059072CF444245524C3CF10E0ACCF2091A7
:100A40008C0030918D00421753074CF080918E003E
:100A500090918F009A01841795070CF49C01C201B4
:100A60002419350935952795359527952901480E7F
:100A7000591EA6CF902F9770892F8F5F863008F070
:100A800086508770902F987F092F082B69DCC7DD6F
:100A9000BB2410E0459B63C00F7DB0FC63C08FB7E3
:100AA000F894CCB5DDB58FBFE12FF0E0E930F1056A
:100AB00088F01CDC10928500109284004424552498
:100AC0000F7E8091A600882309F4E5CECDB7DEB76E
:100AD000EDE054C3E75AFF4F099412E08091AB0058
:100AE0009091AC009E01281B390BD093AC00C093B1
:100AF000AB008091A7009091A8002817390708F44F
:100B00000FC18091A9009091AA009093A8008093B2
:100B1000A7002224802F877080FF84C08091B100BD
:100B20009091B2009E01281B390BD093B200C09364
:100B3000B1008091AD009091AE002817390708F000
:100B4000DBC0821B930B9093AE008093AD00D8DC8A
:100B5000882309F0ECC013E0B39445999DCF00625F
:100B6000B0FE9DCF92DC9BCF17E08091B9009091B1
:100B7000BA009E01281B390BD093BA00C093B9006C
:100B80008091B5009091B6002817390708F4C1C0CC
:100B90008091B7009091B8009093B6008093B50013
:100BA0008091A4009091A5008151974208F094C0D3
:100BB000902F9770892F8F5F863008F0865087704E
:100BC000902F987F092F082BCBDB80919800909174
:100BD00099009E01281B390BD0939900C09398006F
:100BE00080919400909195002817390708F4DAC095
:100BF0008091960090919700909395008093940037
:100C000080917B00815080937B00882341F4109277
:100C10007A0010927900109291001092900018E0E2
:100C2000B3949BCF8091B1009091B2009E01281B9C
:100C3000390BD093B200C093B1008091AD00909178
:100C4000AE002817390708F057C0821B930B90930A
:100C5000AE008093AD005FDC882309F068C014E02B
:100C6000B3947BCF43DB1092850010928400442420
:100C70005524902F9F7E292F2770822F8D5F8630DD
:100C800008F086508770987F092F082BCFDBD09310
:100C9000B200C093B1008FEF9FE79093AE008093B6
:100CA000AD00D093AC00C093AB008091A4009091B4
:100CB000A500969587959695879596958795909397
:100CC000A8008093A700006411E046CF2FDC07FF47
:100CD0000DC04114510451F41092A600EACE809147
:100CE000B3009091B40050DC16E036CFD093AC0046
:100CF000C093AB0011E030CF8091AF009091B00075
:100D00009093AE008093AD0006FFACCFA092A600FA
:100D1000D0CE821B930B9093B6008093B5001CCF6E
:100D2000821B930B9093A8008093A70015CFAE0170
:100D30004A52504006FF1BC08091B3009091B4000E
:100D40009A01281B390BC9015093B4004093B3009A
:100D5000969587959093A5008093A4009695879586
:100D60009093C4008093C3000F7B15E0F5CE809173
:100D7000B3009091B4009A01281B390B5093B40032
:100D80004093B3008091C3009091C400820F931FE1
:100D90009093A5008093A4003093C4002093C300D7
:100DA00015E0DACE821B930B90939500809394000C
:100DB00018E036CF81E007D1609163007091640044
:100DC000809161009091620004D160916700709100
:100DD00068008091650090916600FBD0F9C082E0C8
:100DE000F2D06091630070916400809161009091F5
:100DF000620005D160916700709168008091650084
:100E000090916600FCD0E4C0809177008111089534
:100E100060917E0070917F0080917C0090917D00B8
:100E20004AE0BCDC55DA81589C4088F3D4DC00975A
:100E3000E9F39695879590937100809370008AE00E
:100E40006AE063DC88EC90E0B6D98AE06AE05DDCB9
:100E500080917C0090917D0060E87CE049E19EDC1F
:100E6000BADC0097E9F3FC01F695E7952091700054
:100E700030917100C9018E1B9F0B880F991F880F3D
:100E8000991F64E670E010D1261B370B3093710078
:100E900020937000E60FF71FF0936F00E0936E0051
:100EA0009EDFCACBA1E0B0E0E7E5F7E055C1F894DA
:100EB00019BE1FBC12E01EBD18BA81E387BB8AE2CF
:100EC00085BB8AE384BB80E182BB80E381BB37982A
:100ED00080B7886080BF0ADA959AAC9AC09A85E09C
:100EE00090E069D99598AC98C098929A85B78C7F14
:100EF000816085BF8BB780648BBF10929100109288
:100F0000900028EE33E0309373002093720088ED58
:100F100093E090936B0080936A0088EF97E0909342
:100F20006D0080936C0030936F0020936E0080ED15
:100F300097E09093710080937000109374008FEF8E
:100F400090E09093BD008093BC0088E790E0909380
:100F5000BF008093BE008FEF9FEF90939700809328
:100F600096008DE1898381E02ED0CE01019661E06B
:100F700070E02FD02DD089818D3119F178941092A5
:100F8000850010928400442455240F7E55DB8AEF9F
:100F900090E011D9EBDB38DF8091BB00813021F08C
:100FA0002196E3E0F5C00FC08CE06EE1AEDB8AE095
:100FB00066E4ABDB89E06AE0A8DB2196E3E0E8C009
:100FC00002C0F8DEDBCF1092CA001092C90008956B
:100FD00008950F931F938B016091C9007091CA000F
:100FE000A801E2D08091C9009091CA00800F911FA2
:100FF0009093CA008093C9001F910F910895A0E0BB
:10100000B0E0E4E0F8E0A3C09C016B018091C9006E
:101010009091CA0061157105B9F08C017901EB015D
:1010200005C00F5F1F4F0894E11CF11CC801CCD014
:10103000F7016081861711F0C801CED0219789F79A
:101040008091C9009091CA008C0D9D1D9093CA009B
:101050008093C900CDB7DEB7E8E095C004D022DFA9
:1010600000DCFFDBFDCF78940895629FD001739F71
:10107000F001829FE00DF11D649FE00DF11D929F34
:10108000F00D839FF00D749FF00D659FF00D992773
:10109000729FB00DE11DF91F639FB00DE11DF91F97
:1010A000BD01CF0111240895AA1BBB1B51E107C04C
:1010B000AA1FBB1FA617B70710F0A61BB70B881FE8
:1010C000991F5A95A9F780959095BC01CD01089577
:1010D00097FB092E07260AD077FD04D0E5DF06D05E
:1010E00000201AF4709561957F4F0895F6F790955A
:1010F00081959F4F0895A1E21A2EAA1BBB1BFD01EB
:101100000DC0AA1FBB1FEE1FFF1FA217B307E407E6
:10111000F50720F0A21BB30BE40BF50B661F771F3E
:10112000881F991F1A9469F760957095809590951E
:101130009B01AC01BD01CF0108952F923F924F92C8
:101140005F926F927F928F929F92AF92BF92CF9257
:10115000DF92EF92FF920F931F93CF93DF93CDB760
:10116000DEB7CA1BDB0B0FB6F894DEBF0FBECDBFD8
:1011700009942A88398848885F846E847D848C84A9
:101180009B84AA84B984C884DF80EE80FD800C81B2
:101190001B81AA81B981CE0FD11D0FB6F894DEBF95
:1011A0000FBECDBFED010895DC01CB01FC01E1993B
:1011B000FECF06C0FFBBEEBBE09A31960DB20D929A
:1011C00041505040B8F70895E199FECF9FBB8EBBC8
:1011D000E09A99278DB30895262FE199FECF9FBB02
:1011E0008EBB2DBB0FB6F894E29AE19A0FBE019622
:0611F0000895F894FFCF02
:0A11F6001D600001006A000F0000F8
:00000001FF
