:1000000081C0E6C09AC099C098C097C096C095C0FC
:1000100094C093C092C091C090C08FC08EC08DC05C
:100020008CC08BC08AC054C157C156C153C152C184
:100030004FC14FC14EC14CC14DC14CC14DC14CC14E
:1000400047C156C15AC159C156C155C151C152C10A
:1000500051C14EC150C14FC150C14FC149C157C11B
:100060005AC159C156C155C152C152C151C14FC1E6
:1000700050C14FC150C14FC14AC169C16EC174C1A5
:1000800079C17FC184C162C161C188C18DC195C17F
:100090009AC1A2C153C1BFC1BBC1B7C1BCC1B8C124
:1000A000B4C1B5C1B4C1B1C1B3C1B5C1AEC1B0C1B4
:1000B000B2C10AC612C512C531C5B4C510C654C5F1
:1000C00054C504C600020406080A0C0E10121416C9
:1000D000181A1C1E20222426282A2C2E30323436B0
:1000E000383A3C3E00020406080A0C0E10120116B3
:1000F000011A1C1E20222426012A2C2E0101013661
:10010000383A3C3E11241FBECFE5D4E0DEBFCDBF60
:1001100010E0A0E6B0E0E4EBF1E102C005900D9242
:10012000AA36B107D9F710E0AAE6B0E001C01D92E7
:10013000A63CB107E1F771D73BC862CFFC018085CF
:1001400091859B01281B390BC9017187608720812C
:10015000318142815381A0E0B0E082179307A40768
:10016000B50750F4281B390B4A0B5B0B20833183F6
:100170004283538380E0089584819581A681B7816D
:1001800080839183A283B38381E00895AC01440FFF
:10019000551F445050408FB7F8946CB57DB58FBF54
:1001A0002FB7F8948CB59DB52FBF861B970B84177E
:1001B0009507B0F30895CF93DF93EC01009729F0F2
:1001C00088EE93E0E3DF2197D9F7DF91CF9108958F
:1001D0001F920F920FB60F9211242F933F938F937C
:1001E0009F932CB53DB5829916C080919600909151
:1001F0009700281B390B30939500209394008CE4D2
:1002000080937B009F918F913F912F910F900FBE14
:100210000F901F9018953093970020939600F2CF7F
:1002200080917B00882351F12091940030919500BA
:10023000809194009091950028173907A9F7809133
:100240007C0090917D0028173907C8F480918400C4
:10025000909185002817390788F080918600909149
:1002600087008217930750F0220F331F220F331F8E
:10027000220F331F30937A002093790008958091E4
:100280007E0090917F008217930700F330937A00ED
:1002900020937900089510927B0010927A001092BA
:1002A0007900BEDF8091790090917A000097C9F3C0
:1002B0000895919890989398949897989598089500
:1002C000E82FF0E0EE30F10520F4ED5EFF4F0994E9
:1002D000939A0895919A0895909A089503FD8860DD
:1002E000E82FF0E0EE30F10528F4EF5DFF4F0994C0
:1002F0009598E6CF08959498E3CF9798E1CFE82FAB
:10030000F0E0EE30F10520F4E15DFF4F0994959A9D
:100310000895949A0895979A08959198909893982B
:1003200003FD8860ECCF902F03FD8860E82FF0E09C
:10033000EE30F10558F4E35CFF4F099497989098DC
:10034000919894FD56C0959A83E087B9089597983F
:100350009598949A83E087B9089595989398919881
:1003600094FF45C0909A26C097989498959A82E0F9
:1003700087B9089597989098919894FF36C0919A6C
:100380001FC095989498979A84E087B90895949897
:100390009198909894FF27C0939A1BC09498959831
:1003A000979A82E087B9089595989398909894FDCC
:1003B00018C0949A84E087B9089594989798959A6C
:1003C00083E087B9089594989198909894FD07C018
:1003D000979A82E087B9089595989798EACF909A6E
:1003E000F8CF919AE7CF959AF4CF949AE9CF979A5C
:1003F000E1CF939AA9CF03FD8860E82FF0E0EE30BB
:10040000F10528F4E55BFF4F099482E087B9089570
:1004100084E087B9089583E087B90895802F8770B5
:10042000815081DF802F87707ECF90E0A0E0B0E028
:1004300020918C0030918D00442737FD4095542F3A
:10044000BC01CD01F1D524E630E040E050E032D6E9
:10045000DA01C90108959201402F407104FF06C0DE
:1004600080918C0090918D00281B390B8091880021
:1004700090918900821B930B909389008093880050
:1004800097FD08C0442309F40895802F8F7E082F1C
:10049000877043CF4423C1F7802F8061082F877076
:1004A0001DCF802F877080FF0DC005FD0DC02394E8
:1004B00082E1821510F462E1262E80E0222009F408
:1004C00081E0089505FDF3CF2A94F2CFE22D05FFD8
:1004D000E160F0E0EC53FF4FE4912E2E8E2F8170FF
:1004E0000895E22D05FDE160F0E0EC53FF4FE4914B
:1004F0002E2E8E2F8170089593DE409179005091B9
:100500007A0080918A0090918B00481B590B809152
:100510008E0090918F004817590714F440E050E086
:1005200020918C0030918D008091C0009091C1008D
:10053000821793072CF405969093C1008093C00016
:10054000281739070CF4C901481759070CF4CA01D8
:100550002C0108959093BE008093BD009093B60047
:100560008093B5008091A8009091A9009093B2006B
:100570008093B1009C013695279536952795369541
:1005800027953093BA002093B900C90196958795B5
:100590009093AC008093AB00AC015695479556956F
:1005A00047958091BF00823059F0833019F0813037
:1005B00089F00895241B350B3093BA002093B900BD
:1005C0008091B9009091BA00841B950B9093BA006A
:1005D0008093B9008091B9009091BA00841B950B6B
:1005E0009093BA008093B90008958FEF8093AA008A
:1005F0000F7B5092C1004092C0008091B700909153
:10060000B800A8CF902F9F77092F80917500811196
:100610000068809176008093BF0020916A0030913D
:100620006B00C901880F991F90937D0080937C0017
:1006300040916C0050916D00CA01880F991F9093F2
:100640007F0080937E00E0916E00F0916F00EE0FCE
:10065000FF1FF0938100E0938000809172009091E1
:100660007300880F991F90938300809382003695C2
:1006700027953695279536952795220F331F30936A
:100680008500209384005695479556954795569535
:100690004795440F551F5093870040938600209143
:1006A000700030917100220F331F2E1B3F0BC901C8
:1006B000880F991F880F991F880F991F64E670E0B3
:1006C000D2D4260F371F30938D0020938C00E61B69
:1006D000F70BF0938B00E0938A0070938F00609388
:1006E0008E0088E0A2DE909391008093900089E1D3
:1006F0009CDE9093930080939200902F977F092F18
:1007000080917800811108600895CF92DF92EF9276
:10071000FF92CF93DF93262FE82FF0E080E197E25E
:10072000BF01B5D46B0130E02E9F70012F9FF00CFC
:100730003E9FF00C1124E114F10489F0C0E0D0E0F8
:10074000802F8770CBDD86E090E020DD802F8770E2
:10075000E4DDC6011BDD2196CE15DF0588F3DF91B0
:10076000CF91FF90EF90DF90CF9008951F93087F77
:1007700055DE10E0912F9770802F887F082F092B6E
:10078000812FD1DD812F8A5F6AE0BFDF85E090E0B5
:1007900012DD1F5F153071F71F910895CF92DF9220
:1007A000FF921F93CF93DF93EC016B01F42E142F74
:1007B00072DD212F1F2D8C179D07D0F3C816D90687
:1007C000B8F3122F1150A1F7DF91CF911F91FF9035
:1007D000DF90CF900895EF92FF921F93CF93DF9316
:1007E0005ADD7C01EC0110E003C01F5F1233A9F059
:1007F00052DDC817D90708F4EC018E159F0508F4DF
:100800007C01CE018E199F09099778F380E090E072
:10081000CDB7DEB7E5E099C409C0CE018E0D9F1DAE
:1008200096958795CDB7DEB7E5E08FC460918000DF
:100830007091810080917C0090917D0042E3AECF69
:100840008091740090E0880F991F20918000309172
:10085000810060917E0070917F00820F931F4FE0B6
:100860009DCFA0E0B0E0E6E3F4E04BC4DFDFD6DDEF
:100870008CE062E34ADF78E0672E78EF772E71E054
:10088000872E912C60EAC62E66E8D62E61E0E62E11
:10089000F12CAA24A3940DDD1092890010928800F7
:1008A00044245524802F8F7E082F87FF03C0919A00
:1008B000909A939AC5DFFDDC409090005090910093
:1008C0006092A2007092A3008092A4009092A50072
:1008D000CFEFDFE310E08091A2009091A300A09100
:1008E000A400B091A50080939E0090939F00A093D8
:1008F000A000B093A10052E1252E16C00F7DABDD04
:100900008FB7F8946CB57DB58FBF8EE990E016DC9B
:10091000882309F092C0C5DD882371F4459B08C087
:100920000F7DBFDD882341F44599E8CF0062E7CF12
:100930000062B7DD8823C1F38FB7F8942CB53DB5BD
:100940008FBF8091B7009091B800A901481B590B47
:100950003093B8002093B7008091C2009091C300FB
:10096000840F951F9093A9008093A8005093C30013
:100970004093C2008C1B9D0B959587959595879507
:10098000C80FD91F1F5F183730F02BE1C53ED207C3
:100990000CF470C018E7902F9770892F8F5F863006
:1009A00008F086508770902F987F092F082BB5DCB0
:1009B000802F8F7E082F8770B6DC802F877041F1E3
:1009C0008091A2009091A300A091A400B091A500F5
:1009D0008897A109B1098093A2009093A300A093E6
:1009E000A400B093A500805A9648A140B04040F4BE
:1009F000C092A200D092A300E092A400F092A500C1
:100A00004114510409F447CF8CE291E0BFDB63CF7E
:100A100007DC4091790050917A0080918A00909192
:100A20008B00481B590B80918E0090918F004817C6
:100A300059072CF444245524C3CF10E0ACCF2091A7
:100A4000900030919100421753074CF08091920032
:100A5000909193009A01841795070CF49C01C201B0
:100A60002419350935952795359527952901480E7F
:100A7000591EA6CF902F9770892F8F5F863008F070
:100A800086508770902F987F092F082B4CDCADDDA6
:100A9000BB2410E0459B63C00F7DB0FC63C08FB7E3
:100AA000F894CCB5DDB58FBFE12FF0E0E930F1056A
:100AB00088F0FFDB109289001092880044245524AE
:100AC0000F7E8091AA00882309F4E5CECDB7DEB76A
:100AD000EDE033C3E75AFF4F099412E08091AF0075
:100AE0009091B0009E01281B390BD093B000C093A9
:100AF000AF008091AB009091AC002817390708F443
:100B00000FC18091AD009091AE009093AC008093A6
:100B1000AB002224802F877080FF84C08091B500B5
:100B20009091B6009E01281B390BD093B600C0935C
:100B3000B5008091B1009091B2002817390708F0F4
:100B4000DBC0821B930B9093B2008093B100BEDC9C
:100B5000882309F0ECC013E0B39445999DCF00625F
:100B6000B0FE9DCF78DC9BCF17E08091BD009091C7
:100B7000BE009E01281B390BD093BE00C093BD0060
:100B80008091B9009091BA002817390708F4C1C0C4
:100B90008091BB009091BC009093BA008093B90003
:100BA0008091A8009091A9008151974208F094C0CB
:100BB000902F9770892F8F5F863008F0865087704E
:100BC000902F987F092F082BAEDB80919C0090918D
:100BD0009D009E01281B390BD0939D00C0939C0063
:100BE00080919800909199002817390708F4DAC08D
:100BF00080919A0090919B00909399008093980027
:100C000080917B00815080937B00882341F4109277
:100C10007A0010927900109295001092940018E0DA
:100C2000B3949BCF8091B5009091B6009E01281B94
:100C3000390BD093B600C093B5008091B10090916C
:100C4000B2002817390708F057C0821B930B909306
:100C5000B2008093B10045DC882309F068C014E03D
:100C6000B3947BCF26DB1092890010928800442435
:100C70005524902F9F7E292F2770822F8D5F8630DD
:100C800008F086508770987F092F082BB4DBD0932B
:100C9000B600C093B5008FEF9FE79093B2008093AA
:100CA000B100D093B000C093AF008091A8009091A4
:100CB000A900969587959695879596958795909393
:100CC000AC008093AB00006411E046CF15DC07FF59
:100CD0000DC04114510451F41092AA00EACE809143
:100CE000B7009091B80036DC16E036CFD093B00054
:100CF000C093AF0011E030CF8091B3009091B40069
:100D00009093B2008093B10006FFACCFA092AA00EE
:100D1000D0CE821B930B9093BA008093B9001CCF66
:100D2000821B930B9093AC008093AB0015CFAE0168
:100D30004A52504006FF1BC08091B7009091B80006
:100D40009A01281B390BC9015093B8004093B70092
:100D5000969587959093A9008093A800969587957E
:100D60009093C3008093C2000F7B15E0F5CE809175
:100D7000B7009091B8009A01281B390B5093B80026
:100D80004093B7008091C2009091C300820F931FDF
:100D90009093A9008093A8003093C3002093C200D1
:100DA00015E0DACE821B930B909399008093980004
:100DB00018E036CF81E0E6D0609163007091640066
:100DC0008091610090916200E3D060916700709122
:100DD00068008091650090916600DAD0D8C082E00A
:100DE000D1D0609163007091640080916100909116
:100DF0006200E4D0609167007091680080916500A6
:100E000090916600DBD0C3C0809177008111089576
:100E100060917E0070917F0080917C0090917D00B8
:100E20004AE0BCDC38DA81589C4088F3D4DC009777
:100E3000E9F39695879590937100809370008AE00E
:100E40006AE063DC88EC90E0B6D98AE06AE05DDCB9
:100E500080917C0090917D0060E87CE049E19EDC1F
:100E6000BADC0097E9F3FC01F695E7952091700054
:100E700030917100C9018E1B9F0B880F991F880F3D
:100E8000991F64E670E0EFD0261B370B309371009A
:100E900020937000E60FF71FF0936F00E0936E0051
:100EA0009EDFB0CBA1E0B0E0E7E5F7E034C1F89415
:100EB00019BE1FBC12E01EBD18BA80E387BB15BA6D
:100EC00014BA12BA8BEB81BB379880B7886080BFA9
:100ED000F0D9919A909A939A85E090E06CD9919884
:100EE00090989398929A85B78C7F816085BF8BB7D5
:100EF00080648BBF109295001092940028EE33E02E
:100F0000309373002093720088ED93E090936B0010
:100F100080936A0088EF97E090936D0080936C0057
:100F200030936F0020936E0080ED97E090937100F6
:100F300080937000109374008FEF9FEF90939B004D
:100F400080939A008DE1898381E01CD0CE010196C7
:100F500061E070E01DD01BD089818D3189F07894DB
:100F60001092890010928800442455240F7E4ADB99
:100F70008AEF90E020D9FADB47DF2196E3E0E7C073
:100F800019DFEDCF1092C5001092C40008950895A6
:100F90000F931F938B016091C4007091C500A8014D
:100FA000E2D08091C4009091C500800F911F909372
:100FB000C5008093C4001F910F910895A0E0B0E098
:100FC000E3EEF7E0A3C09C016B018091C400909117
:100FD000C50061157105B9F08C017901EB0105C0FF
:100FE0000F5F1F4F0894E11CF11CC801CCD0F70122
:100FF0006081861711F0C801CED0219789F78091C2
:10100000C4009091C5008C0D9D1D9093C5008093E8
:10101000C400CDB7DEB7E8E095C004D043DF21DCE3
:1010200020DCFDCF78940895629FD001739FF0017A
:10103000829FE00DF11D649FE00DF11D929FF00D68
:10104000839FF00D749FF00D659FF00D9927729F9F
:10105000B00DE11DF91F639FB00DE11DF91FBD012A
:10106000CF0111240895AA1BBB1B51E107C0AA1F81
:10107000BB1FA617B70710F0A61BB70B881F991F39
:101080005A95A9F780959095BC01CD01089597FBDD
:10109000092E07260AD077FD04D0E5DF06D0002010
:1010A0001AF4709561957F4F0895F6F790958195A4
:1010B0009F4F0895A1E21A2EAA1BBB1BFD010DC074
:1010C000AA1FBB1FEE1FFF1FA217B307E407F507F8
:1010D00020F0A21BB30BE40BF50B661F771F881FD4
:1010E000991F1A9469F760957095809590959B016A
:1010F000AC01BD01CF0108952F923F924F925F92B4
:101100006F927F928F929F92AF92BF92CF92DF9217
:10111000EF92FF920F931F93CF93DF93CDB7DEB77C
:10112000CA1BDB0B0FB6F894DEBF0FBECDBF099410
:101130002A88398848885F846E847D848C849B8467
:10114000AA84B984C884DF80EE80FD800C811B8175
:10115000AA81B981CE0FD11D0FB6F894DEBF0FBEA4
:10116000CDBFED010895DC01CB01FC01E199FECF7B
:1011700006C0FFBBEEBBE09A31960DB20D92415016
:101180005040B8F70895E199FECF9FBB8EBBE09A1F
:1011900099278DB30895262FE199FECF9FBB8EBB73
:1011A0002DBB0FB6F894E29AE19A0FBE019608950E
:0411B000F894FFCFE1
:0A11B4001D600001006A000F00003A
:00000001FF
